{
  "_format": "hh-sol-artifact-1",
  "contractName": "PolygonZkEVMBridge",
  "sourceName": "contracts/PolygonZkEVMBridge.sol",
  "abi": [
    {
      "inputs": [],
      "name": "AlreadyClaimed",
      "type": "error"
    },
    {
      "inputs": [],
      "name": "AmountDoesNotMatchMsgValue",
      "type": "error"
    },
    {
      "inputs": [],
      "name": "DestinationNetworkInvalid",
      "type": "error"
    },
    {
      "inputs": [],
      "name": "DuplicateGasToken",
      "type": "error"
    },
    {
      "inputs": [],
      "name": "EtherTransferFailed",
      "type": "error"
    },
    {
      "inputs": [],
      "name": "GlobalExitRootInvalid",
      "type": "error"
    },
    {
      "inputs": [],
      "name": "InvalidSmtProof",
      "type": "error"
    },
    {
      "inputs": [],
      "name": "MerkleTreeFull",
      "type": "error"
    },
    {
      "inputs": [],
      "name": "MessageFailed",
      "type": "error"
    },
    {
      "inputs": [],
      "name": "MsgValueNotZero",
      "type": "error"
    },
    {
      "inputs": [],
      "name": "NotValidAmount",
      "type": "error"
    },
    {
      "inputs": [],
      "name": "NotValidOwner",
      "type": "error"
    },
    {
      "inputs": [],
      "name": "NotValidSignature",
      "type": "error"
    },
    {
      "inputs": [],
      "name": "NotValidSpender",
      "type": "error"
    },
    {
      "inputs": [],
      "name": "OnlyEmergencyState",
      "type": "error"
    },
    {
      "inputs": [],
      "name": "OnlyNotEmergencyState",
      "type": "error"
    },
    {
      "inputs": [],
      "name": "OnlyPolygonZkEVM",
      "type": "error"
    },
    {
      "anonymous": false,
      "inputs": [
        {
          "indexed": false,
          "internalType": "uint8",
          "name": "leafType",
          "type": "uint8"
        },
        {
          "indexed": false,
          "internalType": "uint32",
          "name": "originNetwork",
          "type": "uint32"
        },
        {
          "indexed": false,
          "internalType": "address",
          "name": "originAddress",
          "type": "address"
        },
        {
          "indexed": false,
          "internalType": "uint32",
          "name": "destinationNetwork",
          "type": "uint32"
        },
        {
          "indexed": false,
          "internalType": "address",
          "name": "destinationAddress",
          "type": "address"
        },
        {
          "indexed": false,
          "internalType": "uint256",
          "name": "amount",
          "type": "uint256"
        },
        {
          "indexed": false,
          "internalType": "bytes",
          "name": "metadata",
          "type": "bytes"
        },
        {
          "indexed": false,
          "internalType": "uint32",
          "name": "depositCount",
          "type": "uint32"
        }
      ],
      "name": "BridgeEvent",
      "type": "event"
    },
    {
      "anonymous": false,
      "inputs": [
        {
          "indexed": false,
          "internalType": "uint32",
          "name": "index",
          "type": "uint32"
        },
        {
          "indexed": false,
          "internalType": "uint32",
          "name": "originNetwork",
          "type": "uint32"
        },
        {
          "indexed": false,
          "internalType": "address",
          "name": "originAddress",
          "type": "address"
        },
        {
          "indexed": false,
          "internalType": "address",
          "name": "destinationAddress",
          "type": "address"
        },
        {
          "indexed": false,
          "internalType": "uint256",
          "name": "amount",
          "type": "uint256"
        }
      ],
      "name": "ClaimEvent",
      "type": "event"
    },
    {
      "anonymous": false,
      "inputs": [],
      "name": "EmergencyStateActivated",
      "type": "event"
    },
    {
      "anonymous": false,
      "inputs": [],
      "name": "EmergencyStateDeactivated",
      "type": "event"
    },
    {
      "anonymous": false,
      "inputs": [
        {
          "indexed": false,
          "internalType": "uint8",
          "name": "version",
          "type": "uint8"
        }
      ],
      "name": "Initialized",
      "type": "event"
    },
    {
      "anonymous": false,
      "inputs": [
        {
          "indexed": false,
          "internalType": "uint32",
          "name": "originNetwork",
          "type": "uint32"
        },
        {
          "indexed": false,
          "internalType": "address",
          "name": "originTokenAddress",
          "type": "address"
        },
        {
          "indexed": false,
          "internalType": "address",
          "name": "wrappedTokenAddress",
          "type": "address"
        },
        {
          "indexed": false,
          "internalType": "bytes",
          "name": "metadata",
          "type": "bytes"
        }
      ],
      "name": "NewWrappedToken",
      "type": "event"
    },
    {
      "inputs": [],
      "name": "activateEmergencyState",
      "outputs": [],
      "stateMutability": "nonpayable",
      "type": "function"
    },
    {
      "inputs": [
        {
          "internalType": "uint32",
          "name": "destinationNetwork",
          "type": "uint32"
        },
        {
          "internalType": "address",
          "name": "destinationAddress",
          "type": "address"
        },
        {
          "internalType": "uint256",
          "name": "amount",
          "type": "uint256"
        },
        {
          "internalType": "address",
          "name": "token",
          "type": "address"
        },
        {
          "internalType": "bool",
          "name": "forceUpdateGlobalExitRoot",
          "type": "bool"
        },
        {
          "internalType": "bytes",
          "name": "permitData",
          "type": "bytes"
        }
      ],
      "name": "bridgeAsset",
      "outputs": [],
      "stateMutability": "payable",
      "type": "function"
    },
    {
      "inputs": [
        {
          "internalType": "uint32",
          "name": "destinationNetwork",
          "type": "uint32"
        },
        {
          "internalType": "address",
          "name": "destinationAddress",
          "type": "address"
        },
        {
          "internalType": "bool",
          "name": "forceUpdateGlobalExitRoot",
          "type": "bool"
        },
        {
          "internalType": "bytes",
          "name": "metadata",
          "type": "bytes"
        }
      ],
      "name": "bridgeMessage",
      "outputs": [],
      "stateMutability": "payable",
      "type": "function"
    },
    {
      "inputs": [
        {
          "internalType": "bytes32[32]",
          "name": "smtProof",
          "type": "bytes32[32]"
        },
        {
          "internalType": "uint32",
          "name": "index",
          "type": "uint32"
        },
        {
          "internalType": "bytes32",
          "name": "mainnetExitRoot",
          "type": "bytes32"
        },
        {
          "internalType": "bytes32",
          "name": "rollupExitRoot",
          "type": "bytes32"
        },
        {
          "internalType": "uint32",
          "name": "originNetwork",
          "type": "uint32"
        },
        {
          "internalType": "address",
          "name": "originTokenAddress",
          "type": "address"
        },
        {
          "internalType": "uint32",
          "name": "destinationNetwork",
          "type": "uint32"
        },
        {
          "internalType": "address",
          "name": "destinationAddress",
          "type": "address"
        },
        {
          "internalType": "uint256",
          "name": "amount",
          "type": "uint256"
        },
        {
          "internalType": "bytes",
          "name": "metadata",
          "type": "bytes"
        }
      ],
      "name": "claimAsset",
      "outputs": [],
      "stateMutability": "nonpayable",
      "type": "function"
    },
    {
      "inputs": [
        {
          "internalType": "bytes32[32]",
          "name": "smtProof",
          "type": "bytes32[32]"
        },
        {
          "internalType": "uint32",
          "name": "index",
          "type": "uint32"
        },
        {
          "internalType": "bytes32",
          "name": "mainnetExitRoot",
          "type": "bytes32"
        },
        {
          "internalType": "bytes32",
          "name": "rollupExitRoot",
          "type": "bytes32"
        },
        {
          "internalType": "uint32",
          "name": "originNetwork",
          "type": "uint32"
        },
        {
          "internalType": "address",
          "name": "originAddress",
          "type": "address"
        },
        {
          "internalType": "uint32",
          "name": "destinationNetwork",
          "type": "uint32"
        },
        {
          "internalType": "address",
          "name": "destinationAddress",
          "type": "address"
        },
        {
          "internalType": "uint256",
          "name": "amount",
          "type": "uint256"
        },
        {
          "internalType": "bytes",
          "name": "metadata",
          "type": "bytes"
        }
      ],
      "name": "claimMessage",
      "outputs": [],
      "stateMutability": "nonpayable",
      "type": "function"
    },
    {
      "inputs": [
        {
          "internalType": "uint256",
          "name": "",
          "type": "uint256"
        }
      ],
      "name": "claimedBitMap",
      "outputs": [
        {
          "internalType": "uint256",
          "name": "",
          "type": "uint256"
        }
      ],
      "stateMutability": "view",
      "type": "function"
    },
    {
      "inputs": [],
      "name": "customizeUserGasTokenEnabled",
      "outputs": [
        {
          "internalType": "bool",
          "name": "",
          "type": "bool"
        }
      ],
      "stateMutability": "view",
      "type": "function"
    },
    {
      "inputs": [],
      "name": "deactivateEmergencyState",
      "outputs": [],
      "stateMutability": "nonpayable",
      "type": "function"
    },
    {
      "inputs": [],
      "name": "depositCount",
      "outputs": [
        {
          "internalType": "uint256",
          "name": "",
          "type": "uint256"
        }
      ],
      "stateMutability": "view",
      "type": "function"
    },
    {
      "inputs": [],
      "name": "getDepositRoot",
      "outputs": [
        {
          "internalType": "bytes32",
          "name": "",
          "type": "bytes32"
        }
      ],
      "stateMutability": "view",
      "type": "function"
    },
    {
      "inputs": [
        {
          "internalType": "uint8",
          "name": "leafType",
          "type": "uint8"
        },
        {
          "internalType": "uint32",
          "name": "originNetwork",
          "type": "uint32"
        },
        {
          "internalType": "address",
          "name": "originAddress",
          "type": "address"
        },
        {
          "internalType": "uint32",
          "name": "destinationNetwork",
          "type": "uint32"
        },
        {
          "internalType": "address",
          "name": "destinationAddress",
          "type": "address"
        },
        {
          "internalType": "uint256",
          "name": "amount",
          "type": "uint256"
        },
        {
          "internalType": "bytes32",
          "name": "metadataHash",
          "type": "bytes32"
        }
      ],
      "name": "getLeafValue",
      "outputs": [
        {
          "internalType": "bytes32",
          "name": "",
          "type": "bytes32"
        }
      ],
      "stateMutability": "pure",
      "type": "function"
    },
    {
      "inputs": [
        {
          "internalType": "uint32",
          "name": "originNetwork",
          "type": "uint32"
        },
        {
          "internalType": "address",
          "name": "originTokenAddress",
          "type": "address"
        }
      ],
      "name": "getTokenWrappedAddress",
      "outputs": [
        {
          "internalType": "address",
          "name": "",
          "type": "address"
        }
      ],
      "stateMutability": "view",
      "type": "function"
    },
    {
      "inputs": [],
      "name": "globalExitRootManager",
      "outputs": [
        {
          "internalType": "contract IBasePolygonZkEVMGlobalExitRoot",
          "name": "",
          "type": "address"
        }
      ],
      "stateMutability": "view",
      "type": "function"
    },
    {
      "inputs": [
        {
          "internalType": "uint32",
          "name": "_networkID",
          "type": "uint32"
        },
        {
          "internalType": "contract IBasePolygonZkEVMGlobalExitRoot",
          "name": "_globalExitRootManager",
          "type": "address"
        },
        {
          "internalType": "address",
          "name": "_polygonZkEVMaddress",
          "type": "address"
        },
        {
          "internalType": "address",
          "name": "_userGasTokenAddress",
          "type": "address"
        }
      ],
      "name": "initialize",
      "outputs": [],
      "stateMutability": "nonpayable",
      "type": "function"
    },
    {
      "inputs": [
        {
          "internalType": "uint256",
          "name": "index",
          "type": "uint256"
        }
      ],
      "name": "isClaimed",
      "outputs": [
        {
          "internalType": "bool",
          "name": "",
          "type": "bool"
        }
      ],
      "stateMutability": "view",
      "type": "function"
    },
    {
      "inputs": [],
      "name": "isEmergencyState",
      "outputs": [
        {
          "internalType": "bool",
          "name": "",
          "type": "bool"
        }
      ],
      "stateMutability": "view",
      "type": "function"
    },
    {
      "inputs": [],
      "name": "lastUpdatedDepositCount",
      "outputs": [
        {
          "internalType": "uint32",
          "name": "",
          "type": "uint32"
        }
      ],
      "stateMutability": "view",
      "type": "function"
    },
    {
      "inputs": [],
      "name": "networkID",
      "outputs": [
        {
          "internalType": "uint32",
          "name": "",
          "type": "uint32"
        }
      ],
      "stateMutability": "view",
      "type": "function"
    },
    {
      "inputs": [],
      "name": "polygonZkEVMaddress",
      "outputs": [
        {
          "internalType": "address",
          "name": "",
          "type": "address"
        }
      ],
      "stateMutability": "view",
      "type": "function"
    },
    {
      "inputs": [
        {
          "internalType": "uint32",
          "name": "originNetwork",
          "type": "uint32"
        },
        {
          "internalType": "address",
          "name": "originTokenAddress",
          "type": "address"
        },
        {
          "internalType": "string",
          "name": "name",
          "type": "string"
        },
        {
          "internalType": "string",
          "name": "symbol",
          "type": "string"
        },
        {
          "internalType": "uint8",
          "name": "decimals",
          "type": "uint8"
        }
      ],
      "name": "precalculatedWrapperAddress",
      "outputs": [
        {
          "internalType": "address",
          "name": "",
          "type": "address"
        }
      ],
      "stateMutability": "view",
      "type": "function"
    },
    {
      "inputs": [
        {
          "internalType": "bytes32",
          "name": "",
          "type": "bytes32"
        }
      ],
      "name": "tokenInfoToWrappedToken",
      "outputs": [
        {
          "internalType": "address",
          "name": "",
          "type": "address"
        }
      ],
      "stateMutability": "view",
      "type": "function"
    },
    {
      "inputs": [],
      "name": "updateGlobalExitRoot",
      "outputs": [],
      "stateMutability": "nonpayable",
      "type": "function"
    },
    {
      "inputs": [],
      "name": "userGasTokenAddressOnMainnet",
      "outputs": [
        {
          "internalType": "address",
          "name": "",
          "type": "address"
        }
      ],
      "stateMutability": "view",
      "type": "function"
    },
    {
      "inputs": [
        {
          "internalType": "bytes32",
          "name": "leafHash",
          "type": "bytes32"
        },
        {
          "internalType": "bytes32[32]",
          "name": "smtProof",
          "type": "bytes32[32]"
        },
        {
          "internalType": "uint32",
          "name": "index",
          "type": "uint32"
        },
        {
          "internalType": "bytes32",
          "name": "root",
          "type": "bytes32"
        }
      ],
      "name": "verifyMerkleProof",
      "outputs": [
        {
          "internalType": "bool",
          "name": "",
          "type": "bool"
        }
      ],
      "stateMutability": "pure",
      "type": "function"
    },
    {
      "inputs": [
        {
          "internalType": "address",
          "name": "",
          "type": "address"
        }
      ],
      "name": "wrappedTokenToTokenInfo",
      "outputs": [
        {
          "internalType": "uint32",
          "name": "originNetwork",
          "type": "uint32"
        },
        {
          "internalType": "address",
          "name": "originTokenAddress",
          "type": "address"
        }
      ],
      "stateMutability": "view",
      "type": "function"
    }
  ],
  "bytecode": "0x6080604052606d805460ff60a01b1916905534801561001d57600080fd5b506160a48061002d6000396000f3fe608060405260043610620001b75760003560e01c806379e2cf9711620000f3578063c4274d161162000095578063dbc16976116200006c578063dbc16976146200068f578063ee25560b14620006a7578063fb57083414620006d8578063fb6bf74c14620006fd57600080fd5b8063c4274d161462000611578063cd5865791462000640578063d02103ca146200065757600080fd5b8063aaa13cc211620000ca578063aaa13cc21462000576578063bab161bf146200059b578063be5831c714620005d557600080fd5b806379e2cf9714620004d257806381b1c17414620004ea5780639e34070f146200053157600080fd5b80632dfdf0b5116200015d5780633ae0504711620001345780633ae0504714620003925780633e19704314620003aa5780635058bf44146200049e57600080fd5b80632dfdf0b514620002b3578063318aee3d14620002da57806334ac9cf2146200036357600080fd5b8063240ff3781162000192578063240ff37814620002525780632cffd02e14620002695780632d2c9d94146200028e57600080fd5b806315064c9614620001bc5780632072f6c514620001ed57806322e95f2c1462000207575b600080fd5b348015620001c957600080fd5b50606854620001d89060ff1681565b60405190151581526020015b60405180910390f35b348015620001fa57600080fd5b506200020562000722565b005b3480156200021457600080fd5b506200022c62000226366004620036de565b62000780565b60405173ffffffffffffffffffffffffffffffffffffffff9091168152602001620001e4565b620002056200026336600462003775565b62000823565b3480156200027657600080fd5b5062000205620002883660046200380c565b62000a4b565b3480156200029b57600080fd5b5062000205620002ad3660046200380c565b6200102f565b348015620002c057600080fd5b50620002cb60535481565b604051908152602001620001e4565b348015620002e757600080fd5b5062000331620002f9366004620038f2565b606b6020526000908152604090205463ffffffff811690640100000000900473ffffffffffffffffffffffffffffffffffffffff1682565b6040805163ffffffff909316835273ffffffffffffffffffffffffffffffffffffffff909116602083015201620001e4565b3480156200037057600080fd5b50606c546200022c9073ffffffffffffffffffffffffffffffffffffffff1681565b3480156200039f57600080fd5b50620002cb62001233565b348015620003b757600080fd5b50620002cb620003c936600462003929565b6040517fff0000000000000000000000000000000000000000000000000000000000000060f889901b1660208201527fffffffff0000000000000000000000000000000000000000000000000000000060e088811b821660218401527fffffffffffffffffffffffffffffffffffffffff000000000000000000000000606089811b821660258601529188901b909216603984015285901b16603d8201526051810183905260718101829052600090609101604051602081830303815290604052805190602001209050979650505050505050565b348015620004ab57600080fd5b50606d54620001d89074010000000000000000000000000000000000000000900460ff1681565b348015620004df57600080fd5b506200020562001319565b348015620004f757600080fd5b506200022c62000509366004620039b3565b606a6020526000908152604090205473ffffffffffffffffffffffffffffffffffffffff1681565b3480156200053e57600080fd5b50620001d862000550366004620039b3565b600881901c600090815260696020526040902054600160ff9092169190911b9081161490565b3480156200058357600080fd5b506200022c62000595366004620039cd565b62001353565b348015620005a857600080fd5b50606854620005bf90610100900463ffffffff1681565b60405163ffffffff9091168152602001620001e4565b348015620005e257600080fd5b50606854620005bf90790100000000000000000000000000000000000000000000000000900463ffffffff1681565b3480156200061e57600080fd5b50606d546200022c9073ffffffffffffffffffffffffffffffffffffffff1681565b620002056200065136600462003a81565b6200153f565b3480156200066457600080fd5b506068546200022c9065010000000000900473ffffffffffffffffffffffffffffffffffffffff1681565b3480156200069c57600080fd5b506200020562001d90565b348015620006b457600080fd5b50620002cb620006c6366004620039b3565b60696020526000908152604090205481565b348015620006e557600080fd5b50620001d8620006f736600462003b23565b62001dec565b3480156200070a57600080fd5b50620002056200071c36600462003b70565b62001ed5565b606c5473ffffffffffffffffffffffffffffffffffffffff16331462000774576040517fe2e8106b00000000000000000000000000000000000000000000000000000000815260040160405180910390fd5b6200077e62002179565b565b6040805160e084901b7fffffffff0000000000000000000000000000000000000000000000000000000016602080830191909152606084901b7fffffffffffffffffffffffffffffffffffffffff00000000000000000000000016602483015282516018818403018152603890920183528151918101919091206000908152606a909152205473ffffffffffffffffffffffffffffffffffffffff165b92915050565b60685460ff161562000861576040517f2f0047fc00000000000000000000000000000000000000000000000000000000815260040160405180910390fd5b60685463ffffffff868116610100909204161480620008875750600263ffffffff861610155b15620008bf576040517f0595ea2e00000000000000000000000000000000000000000000000000000000815260040160405180910390fd5b7f501781209a1f8899323b96b4ef08b168df93e0a90c673d1e4cce39366cb62f9b6001606860019054906101000a900463ffffffff16338888348888605354604051620009159998979695949392919062003c1c565b60405180910390a162000a3362000a2d6001606860019054906101000a900463ffffffff163389893489896040516200095092919062003c97565b60405180910390206040517fff0000000000000000000000000000000000000000000000000000000000000060f889901b1660208201527fffffffff0000000000000000000000000000000000000000000000000000000060e088811b821660218401527fffffffffffffffffffffffffffffffffffffffff000000000000000000000000606089811b821660258601529188901b909216603984015285901b16603d8201526051810183905260718101829052600090609101604051602081830303815290604052805190602001209050979650505050505050565b6200220d565b821562000a445762000a4462002324565b5050505050565b60685460ff161562000a89576040517f2f0047fc00000000000000000000000000000000000000000000000000000000815260040160405180910390fd5b62000aa08b8b8b8b8b8b8b8b8b8b8b6000620023ff565b73ffffffffffffffffffffffffffffffffffffffff8616158062000af65750606d5473ffffffffffffffffffffffffffffffffffffffff878116911614801562000af65750606854610100900463ffffffff1615155b1562000bbc576040805160008082526020820190925273ffffffffffffffffffffffffffffffffffffffff861690859060405162000b35919062003cfc565b60006040518083038185875af1925050503d806000811462000b74576040519150601f19603f3d011682016040523d82523d6000602084013e62000b79565b606091505b505090508062000bb5576040517f6747a28800000000000000000000000000000000000000000000000000000000815260040160405180910390fd5b5062000fb7565b60685463ffffffff61010090910481169088160362000bfe5762000bf873ffffffffffffffffffffffffffffffffffffffff87168585620025f0565b62000fb7565b6040517fffffffff0000000000000000000000000000000000000000000000000000000060e089901b1660208201527fffffffffffffffffffffffffffffffffffffffff000000000000000000000000606088901b166024820152600090603801604080517fffffffffffffffffffffffffffffffffffffffffffffffffffffffffffffffe081840301815291815281516020928301206000818152606a90935291205490915073ffffffffffffffffffffffffffffffffffffffff168062000f29576000808062000cd38688018862003e11565b92509250925060008584848460405162000ced9062003695565b62000cfb9392919062003ede565b8190604051809103906000f590508015801562000d1c573d6000803e3d6000fd5b506040517f40c10f1900000000000000000000000000000000000000000000000000000000815273ffffffffffffffffffffffffffffffffffffffff8c81166004830152602482018c9052919250908216906340c10f1990604401600060405180830381600087803b15801562000d9257600080fd5b505af115801562000da7573d6000803e3d6000fd5b5050505080606a600088815260200190815260200160002060006101000a81548173ffffffffffffffffffffffffffffffffffffffff021916908373ffffffffffffffffffffffffffffffffffffffff16021790555060405180604001604052808e63ffffffff1681526020018d73ffffffffffffffffffffffffffffffffffffffff16815250606b60008373ffffffffffffffffffffffffffffffffffffffff1673ffffffffffffffffffffffffffffffffffffffff16815260200190815260200160002060008201518160000160006101000a81548163ffffffff021916908363ffffffff16021790555060208201518160000160046101000a81548173ffffffffffffffffffffffffffffffffffffffff021916908373ffffffffffffffffffffffffffffffffffffffff1602179055509050507f490e59a1701b938786ac72570a1efeac994a3dbe96e2e883e19e902ace6e6a398d8d838b8b60405162000f1795949392919062003f1b565b60405180910390a15050505062000fb4565b6040517f40c10f1900000000000000000000000000000000000000000000000000000000815273ffffffffffffffffffffffffffffffffffffffff8781166004830152602482018790528216906340c10f1990604401600060405180830381600087803b15801562000f9a57600080fd5b505af115801562000faf573d6000803e3d6000fd5b505050505b50505b6040805163ffffffff8c811682528916602082015273ffffffffffffffffffffffffffffffffffffffff88811682840152861660608201526080810185905290517f25308c93ceeed162da955b3f7ce3e3f93606579e40fb92029faa9efe275459839181900360a00190a15050505050505050505050565b60685460ff16156200106d576040517f2f0047fc00000000000000000000000000000000000000000000000000000000815260040160405180910390fd5b620010848b8b8b8b8b8b8b8b8b8b8b6001620023ff565b60008473ffffffffffffffffffffffffffffffffffffffff1684888a8686604051602401620010b7949392919062003f63565b604080517fffffffffffffffffffffffffffffffffffffffffffffffffffffffffffffffe08184030181529181526020820180517bffffffffffffffffffffffffffffffffffffffffffffffffffffffff167f1806b5f200000000000000000000000000000000000000000000000000000000179052516200113a919062003cfc565b60006040518083038185875af1925050503d806000811462001179576040519150601f19603f3d011682016040523d82523d6000602084013e6200117e565b606091505b5050905080620011ba576040517f37e391c300000000000000000000000000000000000000000000000000000000815260040160405180910390fd5b6040805163ffffffff8d811682528a16602082015273ffffffffffffffffffffffffffffffffffffffff89811682840152871660608201526080810186905290517f25308c93ceeed162da955b3f7ce3e3f93606579e40fb92029faa9efe275459839181900360a00190a1505050505050505050505050565b605354600090819081805b602081101562001310578083901c600116600103620012a157603381602081106200126d576200126d62003fab565b01546040805160208101929092528101859052606001604051602081830303815290604052805190602001209350620012ce565b60408051602081018690529081018390526060016040516020818303038152906040528051906020012093505b60408051602081018490529081018390526060016040516020818303038152906040528051906020012091508080620013079062004009565b9150506200123e565b50919392505050565b605354606854790100000000000000000000000000000000000000000000000000900463ffffffff1610156200077e576200077e62002324565b6040517fffffffff0000000000000000000000000000000000000000000000000000000060e089901b1660208201527fffffffffffffffffffffffffffffffffffffffff000000000000000000000000606088901b1660248201526000908190603801604051602081830303815290604052805190602001209050600060ff60f81b308360405180602001620013e99062003695565b7fffffffffffffffffffffffffffffffffffffffffffffffffffffffffffffffe082820381018352601f90910116604081905262001434908d908d908d908d908d9060200162004044565b604080517fffffffffffffffffffffffffffffffffffffffffffffffffffffffffffffffe08184030181529082905262001472929160200162004085565b60405160208183030381529060405280519060200120604051602001620014fb94939291907fff0000000000000000000000000000000000000000000000000000000000000094909416845260609290921b7fffffffffffffffffffffffffffffffffffffffff0000000000000000000000001660018401526015830152603582015260550190565b604080518083037fffffffffffffffffffffffffffffffffffffffffffffffffffffffffffffffe001815291905280516020909101209a9950505050505050505050565b60685460ff16156200157d576040517f2f0047fc00000000000000000000000000000000000000000000000000000000815260040160405180910390fd5b62001587620026c6565b60685463ffffffff888116610100909204161480620015ad5750600263ffffffff881610155b15620015e5576040517f0595ea2e00000000000000000000000000000000000000000000000000000000815260040160405180910390fd5b60008060608773ffffffffffffffffffffffffffffffffffffffff8816620016b957606854610100900463ffffffff161580156200163d5750606d5474010000000000000000000000000000000000000000900460ff165b1562001675576040517fa864554300000000000000000000000000000000000000000000000000000000815260040160405180910390fd5b883414620016af576040517fb89240f500000000000000000000000000000000000000000000000000000000815260040160405180910390fd5b6000925062001c32565b606d5473ffffffffffffffffffffffffffffffffffffffff908116908916036200193857606854610100900463ffffffff16620018f157341562001729576040517f798ee6f100000000000000000000000000000000000000000000000000000000815260040160405180910390fd5b84156200173e576200173e888a88886200273b565b6040517f70a0823100000000000000000000000000000000000000000000000000000000815230600482015260009073ffffffffffffffffffffffffffffffffffffffff8a16906370a0823190602401602060405180830381865afa158015620017ac573d6000803e3d6000fd5b505050506040513d601f19601f82011682018060405250810190620017d29190620040b8565b9050620017f873ffffffffffffffffffffffffffffffffffffffff8a1633308d62002c59565b6040517f70a0823100000000000000000000000000000000000000000000000000000000815230600482015260009073ffffffffffffffffffffffffffffffffffffffff8b16906370a0823190602401602060405180830381865afa15801562001866573d6000803e3d6000fd5b505050506040513d601f19601f820116820180604052508101906200188c9190620040b8565b90506200189a8282620040d2565b925089955060009450620018ae8a62002cb9565b620018b98b62002dd1565b620018c48c62002ede565b604051602001620018d89392919062003ede565b6040516020818303038152906040529350505062001c32565b8834146200192b576040517fb89240f500000000000000000000000000000000000000000000000000000000815260040160405180910390fd5b8793506000925062001c32565b341562001971576040517f798ee6f100000000000000000000000000000000000000000000000000000000815260040160405180910390fd5b73ffffffffffffffffffffffffffffffffffffffff8089166000908152606b602090815260409182902082518084019093525463ffffffff811683526401000000009004909216918101829052901562001a61576040517f9dc29fac000000000000000000000000000000000000000000000000000000008152336004820152602481018b905273ffffffffffffffffffffffffffffffffffffffff8a1690639dc29fac90604401600060405180830381600087803b15801562001a3457600080fd5b505af115801562001a49573d6000803e3d6000fd5b50505050806020015194508060000151935062001c30565b851562001a765762001a76898b89896200273b565b6040517f70a0823100000000000000000000000000000000000000000000000000000000815230600482015260009073ffffffffffffffffffffffffffffffffffffffff8b16906370a0823190602401602060405180830381865afa15801562001ae4573d6000803e3d6000fd5b505050506040513d601f19601f8201168201806040525081019062001b0a9190620040b8565b905062001b3073ffffffffffffffffffffffffffffffffffffffff8b1633308e62002c59565b6040517f70a0823100000000000000000000000000000000000000000000000000000000815230600482015260009073ffffffffffffffffffffffffffffffffffffffff8c16906370a0823190602401602060405180830381865afa15801562001b9e573d6000803e3d6000fd5b505050506040513d601f19601f8201168201806040525081019062001bc49190620040b8565b905062001bd28282620040d2565b6068548c9850610100900463ffffffff169650935062001bf28762002cb9565b62001bfd8c62002dd1565b62001c088d62002ede565b60405160200162001c1c9392919062003ede565b604051602081830303815290604052945050505b505b7f501781209a1f8899323b96b4ef08b168df93e0a90c673d1e4cce39366cb62f9b600084868e8e868860535460405162001c74989796959493929190620040e8565b60405180910390a162001d6862000a2d600085878f8f8789805190602001206040517fff0000000000000000000000000000000000000000000000000000000000000060f889901b1660208201527fffffffff0000000000000000000000000000000000000000000000000000000060e088811b821660218401527fffffffffffffffffffffffffffffffffffffffff000000000000000000000000606089811b821660258601529188901b909216603984015285901b16603d8201526051810183905260718101829052600090609101604051602081830303815290604052805190602001209050979650505050505050565b861562001d795762001d7962002324565b5050505062001d8760018055565b50505050505050565b606c5473ffffffffffffffffffffffffffffffffffffffff16331462001de2576040517fe2e8106b00000000000000000000000000000000000000000000000000000000815260040160405180910390fd5b6200077e62002fe0565b600084815b602081101562001ec757600163ffffffff8616821c8116900362001e635785816020811062001e245762001e2462003fab565b60200201358260405160200162001e45929190918252602082015260400190565b60405160208183030381529060405280519060200120915062001eb2565b8186826020811062001e795762001e7962003fab565b602002013560405160200162001e99929190918252602082015260400190565b6040516020818303038152906040528051906020012091505b8062001ebe8162004009565b91505062001df1565b50821490505b949350505050565b600054610100900460ff161580801562001ef65750600054600160ff909116105b8062001f125750303b15801562001f12575060005460ff166001145b62001fa4576040517f08c379a000000000000000000000000000000000000000000000000000000000815260206004820152602e60248201527f496e697469616c697a61626c653a20636f6e747261637420697320616c72656160448201527f647920696e697469616c697a656400000000000000000000000000000000000060648201526084015b60405180910390fd5b600080547fffffffffffffffffffffffffffffffffffffffffffffffffffffffffffffff0016600117905580156200200357600080547fffffffffffffffffffffffffffffffffffffffffffffffffffffffffffff00ff166101001790555b606880547fffffffffffffff000000000000000000000000000000000000000000000000ff1661010063ffffffff8816027fffffffffffffff0000000000000000000000000000000000000000ffffffffff16176501000000000073ffffffffffffffffffffffffffffffffffffffff8781169190910291909117909155606c80547fffffffffffffffffffffffff000000000000000000000000000000000000000090811686841617909155606d80549091169184169182179055156200210557606d80547fffffffffffffffffffffff00ffffffffffffffffffffffffffffffffffffffff16740100000000000000000000000000000000000000001790555b6200210f62003070565b801562000a4457600080547fffffffffffffffffffffffffffffffffffffffffffffffffffffffffffff00ff169055604051600181527f7f26b83ff96e1f2b6a682f133852f6798a09c465da95921460cefb38474024989060200160405180910390a15050505050565b60685460ff1615620021b7576040517f2f0047fc00000000000000000000000000000000000000000000000000000000815260040160405180910390fd5b606880547fffffffffffffffffffffffffffffffffffffffffffffffffffffffffffffff001660011790556040517f2261efe5aef6fedc1fd1550b25facc9181745623049c7901287030b9ad1a549790600090a1565b8060016200221e602060026200429a565b6200222a9190620040d2565b6053541062002265576040517fef5ccf6600000000000000000000000000000000000000000000000000000000815260040160405180910390fd5b6000605360008154620022789062004009565b9182905550905060005b602081101562002314578082901c600116600103620022ba578260338260208110620022b257620022b262003fab565b015550505050565b60338160208110620022d057620022d062003fab565b0154604080516020810192909252810184905260600160405160208183030381529060405280519060200120925080806200230b9062004009565b91505062002282565b506200231f620042a8565b505050565b6053546068805463ffffffff909216790100000000000000000000000000000000000000000000000000027fffffff00000000ffffffffffffffffffffffffffffffffffffffffffffffffff909216919091179081905573ffffffffffffffffffffffffffffffffffffffff65010000000000909104166333d6247d620023aa62001233565b6040518263ffffffff1660e01b8152600401620023c991815260200190565b600060405180830381600087803b158015620023e457600080fd5b505af1158015620023f9573d6000803e3d6000fd5b50505050565b620024108b63ffffffff1662003113565b6068546040805160208082018e90528183018d9052825180830384018152606083019384905280519101207f257b363200000000000000000000000000000000000000000000000000000000909252606481019190915260009165010000000000900473ffffffffffffffffffffffffffffffffffffffff169063257b3632906084016020604051808303816000875af1158015620024b3573d6000803e3d6000fd5b505050506040513d601f19601f82011682018060405250810190620024d99190620040b8565b90508060000362002515576040517e2f6fad00000000000000000000000000000000000000000000000000000000815260040160405180910390fd5b60685463ffffffff88811661010090920416146200255f576040517f0595ea2e00000000000000000000000000000000000000000000000000000000815260040160405180910390fd5b606854600090610100900463ffffffff166200257d57508962002580565b508a5b620025a9620025a0848c8c8c8c8c8c8c6040516200095092919062003c97565b8f8f8462001dec565b620025e0576040517fe0417cec00000000000000000000000000000000000000000000000000000000815260040160405180910390fd5b5050505050505050505050505050565b60405173ffffffffffffffffffffffffffffffffffffffff83166024820152604481018290526200231f9084907fa9059cbb00000000000000000000000000000000000000000000000000000000906064015b604080517fffffffffffffffffffffffffffffffffffffffffffffffffffffffffffffffe08184030181529190526020810180517bffffffffffffffffffffffffffffffffffffffffffffffffffffffff167fffffffff000000000000000000000000000000000000000000000000000000009093169290921790915262003178565b60026001540362002734576040517f08c379a000000000000000000000000000000000000000000000000000000000815260206004820152601f60248201527f5265656e7472616e637947756172643a207265656e7472616e742063616c6c00604482015260640162001f9b565b6002600155565b60006200274c6004828486620042d7565b620027579162004303565b90507f2afa5331000000000000000000000000000000000000000000000000000000007fffffffff00000000000000000000000000000000000000000000000000000000821601620029d6576000808080808080620027ba896004818d620042d7565b810190620027c991906200434c565b96509650965096509650965096503373ffffffffffffffffffffffffffffffffffffffff168773ffffffffffffffffffffffffffffffffffffffff16146200283d576040517f912ecce700000000000000000000000000000000000000000000000000000000815260040160405180910390fd5b73ffffffffffffffffffffffffffffffffffffffff861630146200288d576040517f750643af00000000000000000000000000000000000000000000000000000000815260040160405180910390fd5b8a8514620028c7576040517f03fffc4b00000000000000000000000000000000000000000000000000000000815260040160405180910390fd5b6040805173ffffffffffffffffffffffffffffffffffffffff89811660248301528881166044830152606482018890526084820187905260ff861660a483015260c4820185905260e48083018590528351808403909101815261010490920183526020820180517bffffffffffffffffffffffffffffffffffffffffffffffffffffffff167fd505accf000000000000000000000000000000000000000000000000000000001790529151918e169162002982919062003cfc565b6000604051808303816000865af19150503d8060008114620029c1576040519150601f19603f3d011682016040523d82523d6000602084013e620029c6565b606091505b5050505050505050505062000a44565b7fffffffff0000000000000000000000000000000000000000000000000000000081167f8fcbaf0c000000000000000000000000000000000000000000000000000000001462002a52576040517fe282c0ba00000000000000000000000000000000000000000000000000000000815260040160405180910390fd5b60008080808080808062002a6a8a6004818e620042d7565b81019062002a799190620043a7565b975097509750975097509750975097503373ffffffffffffffffffffffffffffffffffffffff168873ffffffffffffffffffffffffffffffffffffffff161462002aef576040517f912ecce700000000000000000000000000000000000000000000000000000000815260040160405180910390fd5b73ffffffffffffffffffffffffffffffffffffffff8716301462002b3f576040517f750643af00000000000000000000000000000000000000000000000000000000815260040160405180910390fd5b6040805173ffffffffffffffffffffffffffffffffffffffff8a811660248301528981166044830152606482018990526084820188905286151560a483015260ff861660c483015260e482018590526101048083018590528351808403909101815261012490920183526020820180517bffffffffffffffffffffffffffffffffffffffffffffffffffffffff167f8fcbaf0c000000000000000000000000000000000000000000000000000000001790529151918f169162002c03919062003cfc565b6000604051808303816000865af19150503d806000811462002c42576040519150601f19603f3d011682016040523d82523d6000602084013e62002c47565b606091505b50505050505050505050505050505050565b60405173ffffffffffffffffffffffffffffffffffffffff80851660248301528316604482015260648101829052620023f99085907f23b872dd000000000000000000000000000000000000000000000000000000009060840162002643565b60408051600481526024810182526020810180517bffffffffffffffffffffffffffffffffffffffffffffffffffffffff167f06fdde03000000000000000000000000000000000000000000000000000000001790529051606091600091829173ffffffffffffffffffffffffffffffffffffffff86169162002d3d919062003cfc565b600060405180830381855afa9150503d806000811462002d7a576040519150601f19603f3d011682016040523d82523d6000602084013e62002d7f565b606091505b50915091508162002dc6576040518060400160405280600781526020017f4e4f5f4e414d450000000000000000000000000000000000000000000000000081525062001ecd565b62001ecd816200328b565b60408051600481526024810182526020810180517bffffffffffffffffffffffffffffffffffffffffffffffffffffffff167f95d89b41000000000000000000000000000000000000000000000000000000001790529051606091600091829173ffffffffffffffffffffffffffffffffffffffff86169162002e55919062003cfc565b600060405180830381855afa9150503d806000811462002e92576040519150601f19603f3d011682016040523d82523d6000602084013e62002e97565b606091505b50915091508162002dc6576040518060400160405280600981526020017f4e4f5f53594d424f4c000000000000000000000000000000000000000000000081525062001ecd565b60408051600481526024810182526020810180517bffffffffffffffffffffffffffffffffffffffffffffffffffffffff167f313ce5670000000000000000000000000000000000000000000000000000000017905290516000918291829173ffffffffffffffffffffffffffffffffffffffff86169162002f61919062003cfc565b600060405180830381855afa9150503d806000811462002f9e576040519150601f19603f3d011682016040523d82523d6000602084013e62002fa3565b606091505b509150915081801562002fb7575080516020145b62002fc457601262001ecd565b8080602001905181019062001ecd919062004433565b60018055565b60685460ff166200301d576040517f5386698100000000000000000000000000000000000000000000000000000000815260040160405180910390fd5b606880547fffffffffffffffffffffffffffffffffffffffffffffffffffffffffffffff001690556040517f1e5e34eea33501aecf2ebec9fe0e884a40804275ea7fe10b2ba084c8374308b390600090a1565b600054610100900460ff1662003109576040517f08c379a000000000000000000000000000000000000000000000000000000000815260206004820152602b60248201527f496e697469616c697a61626c653a20636f6e7472616374206973206e6f74206960448201527f6e697469616c697a696e67000000000000000000000000000000000000000000606482015260840162001f9b565b6200077e6200347b565b600881901c60008181526069602052604081208054600160ff861690811b9182189283905592909190818316900362000a44576040517f646cf55800000000000000000000000000000000000000000000000000000000815260040160405180910390fd5b6000620031dc826040518060400160405280602081526020017f5361666545524332303a206c6f772d6c6576656c2063616c6c206661696c65648152508573ffffffffffffffffffffffffffffffffffffffff16620035149092919063ffffffff16565b8051909150156200231f5780806020019051810190620031fd919062004453565b6200231f576040517f08c379a000000000000000000000000000000000000000000000000000000000815260206004820152602a60248201527f5361666545524332303a204552433230206f7065726174696f6e20646964206e60448201527f6f74207375636365656400000000000000000000000000000000000000000000606482015260840162001f9b565b60606040825110620032ad57818060200190518101906200081d919062004473565b81516020036200343d5760005b602081108015620033055750828181518110620032db57620032db62003fab565b01602001517fff000000000000000000000000000000000000000000000000000000000000001615155b15620033205780620033178162004009565b915050620032ba565b806000036200336457505060408051808201909152601281527f4e4f545f56414c49445f454e434f44494e4700000000000000000000000000006020820152919050565b60008167ffffffffffffffff81111562003382576200338262003ca7565b6040519080825280601f01601f191660200182016040528015620033ad576020820181803683370190505b50905060005b828110156200343557848181518110620033d157620033d162003fab565b602001015160f81c60f81b828281518110620033f157620033f162003fab565b60200101907effffffffffffffffffffffffffffffffffffffffffffffffffffffffffffff1916908160001a905350806200342c8162004009565b915050620033b3565b509392505050565b505060408051808201909152601281527f4e4f545f56414c49445f454e434f44494e470000000000000000000000000000602082015290565b919050565b600054610100900460ff1662002fda576040517f08c379a000000000000000000000000000000000000000000000000000000000815260206004820152602b60248201527f496e697469616c697a61626c653a20636f6e7472616374206973206e6f74206960448201527f6e697469616c697a696e67000000000000000000000000000000000000000000606482015260840162001f9b565b606062001ecd8484600085856000808673ffffffffffffffffffffffffffffffffffffffff1685876040516200354b919062003cfc565b60006040518083038185875af1925050503d80600081146200358a576040519150601f19603f3d011682016040523d82523d6000602084013e6200358f565b606091505b5091509150620035a287838387620035ad565b979650505050505050565b6060831562003648578251600003620036405773ffffffffffffffffffffffffffffffffffffffff85163b62003640576040517f08c379a000000000000000000000000000000000000000000000000000000000815260206004820152601d60248201527f416464726573733a2063616c6c20746f206e6f6e2d636f6e7472616374000000604482015260640162001f9b565b508162001ecd565b62001ecd83838151156200365f5781518083602001fd5b806040517f08c379a000000000000000000000000000000000000000000000000000000000815260040162001f9b9190620044f3565b611b66806200450983390190565b803563ffffffff811681146200347657600080fd5b73ffffffffffffffffffffffffffffffffffffffff81168114620036db57600080fd5b50565b60008060408385031215620036f257600080fd5b620036fd83620036a3565b915060208301356200370f81620036b8565b809150509250929050565b8015158114620036db57600080fd5b60008083601f8401126200373c57600080fd5b50813567ffffffffffffffff8111156200375557600080fd5b6020830191508360208285010111156200376e57600080fd5b9250929050565b6000806000806000608086880312156200378e57600080fd5b6200379986620036a3565b94506020860135620037ab81620036b8565b93506040860135620037bd816200371a565b9250606086013567ffffffffffffffff811115620037da57600080fd5b620037e88882890162003729565b969995985093965092949392505050565b8061040081018310156200081d57600080fd5b60008060008060008060008060008060006105208c8e0312156200382f57600080fd5b6200383b8d8d620037f9565b9a506200384c6104008d01620036a3565b99506104208c013598506104408c013597506200386d6104608d01620036a3565b96506104808c01356200388081620036b8565b9550620038916104a08d01620036a3565b94506104c08c0135620038a481620036b8565b93506104e08c013592506105008c013567ffffffffffffffff811115620038ca57600080fd5b620038d88e828f0162003729565b915080935050809150509295989b509295989b9093969950565b6000602082840312156200390557600080fd5b81356200391281620036b8565b9392505050565b60ff81168114620036db57600080fd5b600080600080600080600060e0888a0312156200394557600080fd5b8735620039528162003919565b96506200396260208901620036a3565b955060408801356200397481620036b8565b94506200398460608901620036a3565b935060808801356200399681620036b8565b9699959850939692959460a0840135945060c09093013592915050565b600060208284031215620039c657600080fd5b5035919050565b600080600080600080600060a0888a031215620039e957600080fd5b620039f488620036a3565b9650602088013562003a0681620036b8565b9550604088013567ffffffffffffffff8082111562003a2457600080fd5b62003a328b838c0162003729565b909750955060608a013591508082111562003a4c57600080fd5b5062003a5b8a828b0162003729565b909450925050608088013562003a718162003919565b8091505092959891949750929550565b600080600080600080600060c0888a03121562003a9d57600080fd5b62003aa888620036a3565b9650602088013562003aba81620036b8565b955060408801359450606088013562003ad381620036b8565b9350608088013562003ae5816200371a565b925060a088013567ffffffffffffffff81111562003b0257600080fd5b62003b108a828b0162003729565b989b979a50959850939692959293505050565b600080600080610460858703121562003b3b57600080fd5b8435935062003b4e8660208701620037f9565b925062003b5f6104208601620036a3565b939692955092936104400135925050565b6000806000806080858703121562003b8757600080fd5b62003b9285620036a3565b9350602085013562003ba481620036b8565b9250604085013562003bb681620036b8565b9150606085013562003bc881620036b8565b939692955090935050565b8183528181602085013750600060208284010152600060207fffffffffffffffffffffffffffffffffffffffffffffffffffffffffffffffe0601f840116840101905092915050565b600061010060ff8c16835263ffffffff808c16602085015273ffffffffffffffffffffffffffffffffffffffff808c166040860152818b166060860152808a166080860152508760a08501528160c085015262003c7d828501878962003bd3565b925080851660e085015250509a9950505050505050505050565b8183823760009101908152919050565b7f4e487b7100000000000000000000000000000000000000000000000000000000600052604160045260246000fd5b60005b8381101562003cf357818101518382015260200162003cd9565b50506000910152565b6000825162003d1081846020870162003cd6565b9190910192915050565b604051601f82017fffffffffffffffffffffffffffffffffffffffffffffffffffffffffffffffe016810167ffffffffffffffff8111828210171562003d645762003d6462003ca7565b604052919050565b600067ffffffffffffffff82111562003d895762003d8962003ca7565b50601f017fffffffffffffffffffffffffffffffffffffffffffffffffffffffffffffffe01660200190565b600082601f83011262003dc757600080fd5b813562003dde62003dd88262003d6c565b62003d1a565b81815284602083860101111562003df457600080fd5b816020850160208301376000918101602001919091529392505050565b60008060006060848603121562003e2757600080fd5b833567ffffffffffffffff8082111562003e4057600080fd5b62003e4e8783880162003db5565b9450602086013591508082111562003e6557600080fd5b5062003e748682870162003db5565b925050604084013562003e878162003919565b809150509250925092565b6000815180845262003eac81602086016020860162003cd6565b601f017fffffffffffffffffffffffffffffffffffffffffffffffffffffffffffffffe0169290920160200192915050565b60608152600062003ef3606083018662003e92565b828103602084015262003f07818662003e92565b91505060ff83166040830152949350505050565b63ffffffff86168152600073ffffffffffffffffffffffffffffffffffffffff808716602084015280861660408401525060806060830152620035a260808301848662003bd3565b73ffffffffffffffffffffffffffffffffffffffff8516815263ffffffff8416602082015260606040820152600062003fa160608301848662003bd3565b9695505050505050565b7f4e487b7100000000000000000000000000000000000000000000000000000000600052603260045260246000fd5b7f4e487b7100000000000000000000000000000000000000000000000000000000600052601160045260246000fd5b60007fffffffffffffffffffffffffffffffffffffffffffffffffffffffffffffffff82036200403d576200403d62003fda565b5060010190565b6060815260006200405a60608301878962003bd3565b82810360208401526200406f81868862003bd3565b91505060ff831660408301529695505050505050565b600083516200409981846020880162003cd6565b835190830190620040af81836020880162003cd6565b01949350505050565b600060208284031215620040cb57600080fd5b5051919050565b818103818111156200081d576200081d62003fda565b600061010060ff8b16835263ffffffff808b16602085015273ffffffffffffffffffffffffffffffffffffffff808b166040860152818a1660608601528089166080860152508660a08501528160c0850152620041488285018762003e92565b925080851660e085015250509998505050505050505050565b600181815b80851115620041c057817fffffffffffffffffffffffffffffffffffffffffffffffffffffffffffffffff04821115620041a457620041a462003fda565b80851615620041b257918102915b93841c939080029062004166565b509250929050565b600082620041d9575060016200081d565b81620041e8575060006200081d565b81600181146200420157600281146200420c576200422c565b60019150506200081d565b60ff84111562004220576200422062003fda565b50506001821b6200081d565b5060208310610133831016604e8410600b841016171562004251575081810a6200081d565b6200425d838362004161565b807fffffffffffffffffffffffffffffffffffffffffffffffffffffffffffffffff0482111562004292576200429262003fda565b029392505050565b6000620039128383620041c8565b7f4e487b7100000000000000000000000000000000000000000000000000000000600052600160045260246000fd5b60008085851115620042e857600080fd5b83861115620042f657600080fd5b5050820193919092039150565b7fffffffff000000000000000000000000000000000000000000000000000000008135818116916004851015620043445780818660040360031b1b83161692505b505092915050565b600080600080600080600060e0888a0312156200436857600080fd5b87356200437581620036b8565b965060208801356200438781620036b8565b955060408801359450606088013593506080880135620039968162003919565b600080600080600080600080610100898b031215620043c557600080fd5b8835620043d281620036b8565b97506020890135620043e481620036b8565b96506040890135955060608901359450608089013562004404816200371a565b935060a0890135620044168162003919565b979a969950949793969295929450505060c08201359160e0013590565b6000602082840312156200444657600080fd5b8151620039128162003919565b6000602082840312156200446657600080fd5b815162003912816200371a565b6000602082840312156200448657600080fd5b815167ffffffffffffffff8111156200449e57600080fd5b8201601f81018413620044b057600080fd5b8051620044c162003dd88262003d6c565b818152856020838501011115620044d757600080fd5b620044ea82602083016020860162003cd6565b95945050505050565b60208152600062003912602083018462003e9256fe6101006040523480156200001257600080fd5b5060405162001b6638038062001b6683398101604081905262000035916200028d565b82826003620000458382620003a1565b506004620000548282620003a1565b50503360c0525060ff811660e052466080819052620000739062000080565b60a052506200046d915050565b60007f8b73c3c69bb8fe3d512ecc4cf759cc79239f7b179b0ffacaa9a75d522b39400f620000ad6200012e565b805160209182012060408051808201825260018152603160f81b90840152805192830193909352918101919091527fc89efdaa54c0f20c7adf612882df0950f5a951637e0307cdcb4c672f298b8bc66060820152608081018390523060a082015260c001604051602081830303815290604052805190602001209050919050565b6060600380546200013f9062000312565b80601f01602080910402602001604051908101604052809291908181526020018280546200016d9062000312565b8015620001be5780601f106200019257610100808354040283529160200191620001be565b820191906000526020600020905b815481529060010190602001808311620001a057829003601f168201915b5050505050905090565b634e487b7160e01b600052604160045260246000fd5b600082601f830112620001f057600080fd5b81516001600160401b03808211156200020d576200020d620001c8565b604051601f8301601f19908116603f01168101908282118183101715620002385762000238620001c8565b816040528381526020925086838588010111156200025557600080fd5b600091505b838210156200027957858201830151818301840152908201906200025a565b600093810190920192909252949350505050565b600080600060608486031215620002a357600080fd5b83516001600160401b0380821115620002bb57600080fd5b620002c987838801620001de565b94506020860151915080821115620002e057600080fd5b50620002ef86828701620001de565b925050604084015160ff811681146200030757600080fd5b809150509250925092565b600181811c908216806200032757607f821691505b6020821081036200034857634e487b7160e01b600052602260045260246000fd5b50919050565b601f8211156200039c57600081815260208120601f850160051c81016020861015620003775750805b601f850160051c820191505b81811015620003985782815560010162000383565b5050505b505050565b81516001600160401b03811115620003bd57620003bd620001c8565b620003d581620003ce845462000312565b846200034e565b602080601f8311600181146200040d5760008415620003f45750858301515b600019600386901b1c1916600185901b17855562000398565b600085815260208120601f198616915b828110156200043e578886015182559484019460019091019084016200041d565b50858210156200045d5787850151600019600388901b60f8161c191681555b5050505050600190811b01905550565b60805160a05160c05160e0516116aa620004bc6000396000610237015260008181610307015281816105c001526106a70152600061053a015260008181610379015261050401526116aa6000f3fe608060405234801561001057600080fd5b50600436106101775760003560e01c806370a08231116100d8578063a457c2d71161008c578063d505accf11610066578063d505accf1461039b578063dd62ed3e146103ae578063ffa1ad74146103f457600080fd5b8063a457c2d71461034e578063a9059cbb14610361578063cd0d00961461037457600080fd5b806395d89b41116100bd57806395d89b41146102e75780639dc29fac146102ef578063a3c573eb1461030257600080fd5b806370a08231146102915780637ecebe00146102c757600080fd5b806330adf81f1161012f5780633644e515116101145780633644e51514610261578063395093511461026957806340c10f191461027c57600080fd5b806330adf81f14610209578063313ce5671461023057600080fd5b806318160ddd1161016057806318160ddd146101bd57806320606b70146101cf57806323b872dd146101f657600080fd5b806306fdde031461017c578063095ea7b31461019a575b600080fd5b610184610430565b60405161019191906113e4565b60405180910390f35b6101ad6101a8366004611479565b6104c2565b6040519015158152602001610191565b6002545b604051908152602001610191565b6101c17f8b73c3c69bb8fe3d512ecc4cf759cc79239f7b179b0ffacaa9a75d522b39400f81565b6101ad6102043660046114a3565b6104dc565b6101c17f6e71edae12b1b97f4d1f60370fef10105fa2faae0126114a169c64845d6126c981565b60405160ff7f0000000000000000000000000000000000000000000000000000000000000000168152602001610191565b6101c1610500565b6101ad610277366004611479565b61055c565b61028f61028a366004611479565b6105a8565b005b6101c161029f3660046114df565b73ffffffffffffffffffffffffffffffffffffffff1660009081526020819052604090205490565b6101c16102d53660046114df565b60056020526000908152604090205481565b610184610680565b61028f6102fd366004611479565b61068f565b6103297f000000000000000000000000000000000000000000000000000000000000000081565b60405173ffffffffffffffffffffffffffffffffffffffff9091168152602001610191565b6101ad61035c366004611479565b61075e565b6101ad61036f366004611479565b61082f565b6101c17f000000000000000000000000000000000000000000000000000000000000000081565b61028f6103a9366004611501565b61083d565b6101c16103bc366004611574565b73ffffffffffffffffffffffffffffffffffffffff918216600090815260016020908152604080832093909416825291909152205490565b6101846040518060400160405280600181526020017f310000000000000000000000000000000000000000000000000000000000000081525081565b60606003805461043f906115a7565b80601f016020809104026020016040519081016040528092919081815260200182805461046b906115a7565b80156104b85780601f1061048d576101008083540402835291602001916104b8565b820191906000526020600020905b81548152906001019060200180831161049b57829003601f168201915b5050505050905090565b6000336104d0818585610b73565b60019150505b92915050565b6000336104ea858285610d27565b6104f5858585610dfe565b506001949350505050565b60007f00000000000000000000000000000000000000000000000000000000000000004614610537576105324661106d565b905090565b507f000000000000000000000000000000000000000000000000000000000000000090565b33600081815260016020908152604080832073ffffffffffffffffffffffffffffffffffffffff871684529091528120549091906104d090829086906105a3908790611629565b610b73565b3373ffffffffffffffffffffffffffffffffffffffff7f00000000000000000000000000000000000000000000000000000000000000001614610672576040517f08c379a000000000000000000000000000000000000000000000000000000000815260206004820152603060248201527f546f6b656e577261707065643a3a6f6e6c794272696467653a204e6f7420506f60448201527f6c79676f6e5a6b45564d4272696467650000000000000000000000000000000060648201526084015b60405180910390fd5b61067c8282611135565b5050565b60606004805461043f906115a7565b3373ffffffffffffffffffffffffffffffffffffffff7f00000000000000000000000000000000000000000000000000000000000000001614610754576040517f08c379a000000000000000000000000000000000000000000000000000000000815260206004820152603060248201527f546f6b656e577261707065643a3a6f6e6c794272696467653a204e6f7420506f60448201527f6c79676f6e5a6b45564d427269646765000000000000000000000000000000006064820152608401610669565b61067c8282611228565b33600081815260016020908152604080832073ffffffffffffffffffffffffffffffffffffffff8716845290915281205490919083811015610822576040517f08c379a000000000000000000000000000000000000000000000000000000000815260206004820152602560248201527f45524332303a2064656372656173656420616c6c6f77616e63652062656c6f7760448201527f207a65726f0000000000000000000000000000000000000000000000000000006064820152608401610669565b6104f58286868403610b73565b6000336104d0818585610dfe565b834211156108cc576040517f08c379a0000000000000000000000000000000000000000000000000000000008152602060048201526024808201527f546f6b656e577261707065643a3a7065726d69743a204578706972656420706560448201527f726d6974000000000000000000000000000000000000000000000000000000006064820152608401610669565b73ffffffffffffffffffffffffffffffffffffffff8716600090815260056020526040812080547f6e71edae12b1b97f4d1f60370fef10105fa2faae0126114a169c64845d6126c9918a918a918a9190866109268361163c565b9091555060408051602081019690965273ffffffffffffffffffffffffffffffffffffffff94851690860152929091166060840152608083015260a082015260c0810186905260e0016040516020818303038152906040528051906020012090506000610991610500565b6040517f19010000000000000000000000000000000000000000000000000000000000006020820152602281019190915260428101839052606201604080517fffffffffffffffffffffffffffffffffffffffffffffffffffffffffffffffe08184030181528282528051602091820120600080855291840180845281905260ff89169284019290925260608301879052608083018690529092509060019060a0016020604051602081039080840390855afa158015610a55573d6000803e3d6000fd5b50506040517fffffffffffffffffffffffffffffffffffffffffffffffffffffffffffffffe0015191505073ffffffffffffffffffffffffffffffffffffffff811615801590610ad057508973ffffffffffffffffffffffffffffffffffffffff168173ffffffffffffffffffffffffffffffffffffffff16145b610b5c576040517f08c379a000000000000000000000000000000000000000000000000000000000815260206004820152602760248201527f546f6b656e577261707065643a3a7065726d69743a20496e76616c696420736960448201527f676e6174757265000000000000000000000000000000000000000000000000006064820152608401610669565b610b678a8a8a610b73565b50505050505050505050565b73ffffffffffffffffffffffffffffffffffffffff8316610c15576040517f08c379a0000000000000000000000000000000000000000000000000000000008152602060048201526024808201527f45524332303a20617070726f76652066726f6d20746865207a65726f2061646460448201527f72657373000000000000000000000000000000000000000000000000000000006064820152608401610669565b73ffffffffffffffffffffffffffffffffffffffff8216610cb8576040517f08c379a000000000000000000000000000000000000000000000000000000000815260206004820152602260248201527f45524332303a20617070726f766520746f20746865207a65726f20616464726560448201527f73730000000000000000000000000000000000000000000000000000000000006064820152608401610669565b73ffffffffffffffffffffffffffffffffffffffff83811660008181526001602090815260408083209487168084529482529182902085905590518481527f8c5be1e5ebec7d5bd14f71427d1e84f3dd0314c0f7b2291e5b200ac8c7c3b92591015b60405180910390a3505050565b73ffffffffffffffffffffffffffffffffffffffff8381166000908152600160209081526040808320938616835292905220547fffffffffffffffffffffffffffffffffffffffffffffffffffffffffffffffff8114610df85781811015610deb576040517f08c379a000000000000000000000000000000000000000000000000000000000815260206004820152601d60248201527f45524332303a20696e73756666696369656e7420616c6c6f77616e63650000006044820152606401610669565b610df88484848403610b73565b50505050565b73ffffffffffffffffffffffffffffffffffffffff8316610ea1576040517f08c379a000000000000000000000000000000000000000000000000000000000815260206004820152602560248201527f45524332303a207472616e736665722066726f6d20746865207a65726f20616460448201527f64726573730000000000000000000000000000000000000000000000000000006064820152608401610669565b73ffffffffffffffffffffffffffffffffffffffff8216610f44576040517f08c379a000000000000000000000000000000000000000000000000000000000815260206004820152602360248201527f45524332303a207472616e7366657220746f20746865207a65726f206164647260448201527f65737300000000000000000000000000000000000000000000000000000000006064820152608401610669565b73ffffffffffffffffffffffffffffffffffffffff831660009081526020819052604090205481811015610ffa576040517f08c379a000000000000000000000000000000000000000000000000000000000815260206004820152602660248201527f45524332303a207472616e7366657220616d6f756e742065786365656473206260448201527f616c616e636500000000000000000000000000000000000000000000000000006064820152608401610669565b73ffffffffffffffffffffffffffffffffffffffff848116600081815260208181526040808320878703905593871680835291849020805487019055925185815290927fddf252ad1be2c89b69c2b068fc378daa952ba7f163c4a11628f55a4df523b3ef910160405180910390a3610df8565b60007f8b73c3c69bb8fe3d512ecc4cf759cc79239f7b179b0ffacaa9a75d522b39400f611098610430565b8051602091820120604080518082018252600181527f310000000000000000000000000000000000000000000000000000000000000090840152805192830193909352918101919091527fc89efdaa54c0f20c7adf612882df0950f5a951637e0307cdcb4c672f298b8bc66060820152608081018390523060a082015260c001604051602081830303815290604052805190602001209050919050565b73ffffffffffffffffffffffffffffffffffffffff82166111b2576040517f08c379a000000000000000000000000000000000000000000000000000000000815260206004820152601f60248201527f45524332303a206d696e7420746f20746865207a65726f2061646472657373006044820152606401610669565b80600260008282546111c49190611629565b909155505073ffffffffffffffffffffffffffffffffffffffff8216600081815260208181526040808320805486019055518481527fddf252ad1be2c89b69c2b068fc378daa952ba7f163c4a11628f55a4df523b3ef910160405180910390a35050565b73ffffffffffffffffffffffffffffffffffffffff82166112cb576040517f08c379a000000000000000000000000000000000000000000000000000000000815260206004820152602160248201527f45524332303a206275726e2066726f6d20746865207a65726f2061646472657360448201527f73000000000000000000000000000000000000000000000000000000000000006064820152608401610669565b73ffffffffffffffffffffffffffffffffffffffff821660009081526020819052604090205481811015611381576040517f08c379a000000000000000000000000000000000000000000000000000000000815260206004820152602260248201527f45524332303a206275726e20616d6f756e7420657863656564732062616c616e60448201527f63650000000000000000000000000000000000000000000000000000000000006064820152608401610669565b73ffffffffffffffffffffffffffffffffffffffff83166000818152602081815260408083208686039055600280548790039055518581529192917fddf252ad1be2c89b69c2b068fc378daa952ba7f163c4a11628f55a4df523b3ef9101610d1a565b600060208083528351808285015260005b81811015611411578581018301518582016040015282016113f5565b5060006040828601015260407fffffffffffffffffffffffffffffffffffffffffffffffffffffffffffffffe0601f8301168501019250505092915050565b803573ffffffffffffffffffffffffffffffffffffffff8116811461147457600080fd5b919050565b6000806040838503121561148c57600080fd5b61149583611450565b946020939093013593505050565b6000806000606084860312156114b857600080fd5b6114c184611450565b92506114cf60208501611450565b9150604084013590509250925092565b6000602082840312156114f157600080fd5b6114fa82611450565b9392505050565b600080600080600080600060e0888a03121561151c57600080fd5b61152588611450565b965061153360208901611450565b95506040880135945060608801359350608088013560ff8116811461155757600080fd5b9699959850939692959460a0840135945060c09093013592915050565b6000806040838503121561158757600080fd5b61159083611450565b915061159e60208401611450565b90509250929050565b600181811c908216806115bb57607f821691505b6020821081036115f4577f4e487b7100000000000000000000000000000000000000000000000000000000600052602260045260246000fd5b50919050565b7f4e487b7100000000000000000000000000000000000000000000000000000000600052601160045260246000fd5b808201808211156104d6576104d66115fa565b60007fffffffffffffffffffffffffffffffffffffffffffffffffffffffffffffffff820361166d5761166d6115fa565b506001019056fea26469706673582212208d88fee561cff7120d381c345cfc534cef8229a272dc5809d4bbb685ad67141164736f6c63430008110033a2646970667358221220ce1b489c6a816555aca482689ffd1304d7ea62d2eb048c7895318efaa49c3df264736f6c63430008110033",
  "linkReferences": {},
  "deployedLinkReferences": {}
}